:020000040000FA
:10000000000000308A000D2805288C00030E8D00AA
:100010000D0E83008C0E0C0E090083161F30850018
:10002000003086008312031486018501FE308C00A7
:100030003228051C1C281F28851C22282528851CE1
:100040002A282F280B30860019287F308C000A3090
:10005000860008007F308C000F30860008000030DA
:100060008600192819200C088D0086148615442056
:100070008D0B3528FF308D000C088D0286108611FF
:1000800044208D0B3E28322802308E0000008E0B5B
:0600900046284A28080082
:02400E00FF3F72
:00000001FF
